{
  "_format": "hh-sol-artifact-1",
  "contractName": "KoinFunds",
  "sourceName": "src/contracts/KoinFunds.sol",
  "abi": [
    {
      "inputs": [
        {
          "internalType": "uint256",
          "name": "_projectTax",
          "type": "uint256"
        }
      ],
      "stateMutability": "nonpayable",
      "type": "constructor"
    },
    {
      "anonymous": false,
      "inputs": [
        {
          "indexed": false,
          "internalType": "uint256",
          "name": "id",
          "type": "uint256"
        },
        {
          "indexed": false,
          "internalType": "string",
          "name": "actionType",
          "type": "string"
        },
        {
          "indexed": true,
          "internalType": "address",
          "name": "executor",
          "type": "address"
        },
        {
          "indexed": false,
          "internalType": "uint256",
          "name": "timestamp",
          "type": "uint256"
        }
      ],
      "name": "Action",
      "type": "event"
    },
    {
      "inputs": [],
      "name": "balance",
      "outputs": [
        {
          "internalType": "uint256",
          "name": "",
          "type": "uint256"
        }
      ],
      "stateMutability": "view",
      "type": "function"
    },
    {
      "inputs": [
        {
          "internalType": "uint256",
          "name": "_tax",
          "type": "uint256"
        }
      ],
      "name": "changeTax",
      "outputs": [],
      "stateMutability": "nonpayable",
      "type": "function"
    },
    {
      "inputs": [
        {
          "internalType": "string",
          "name": "title",
          "type": "string"
        },
        {
          "internalType": "string",
          "name": "description",
          "type": "string"
        },
        {
          "internalType": "string",
          "name": "imageURL",
          "type": "string"
        },
        {
          "internalType": "uint256",
          "name": "goal",
          "type": "uint256"
        },
        {
          "internalType": "uint256",
          "name": "expiresAt",
          "type": "uint256"
        },
        {
          "internalType": "string",
          "name": "organizationType",
          "type": "string"
        },
        {
          "internalType": "string",
          "name": "companyName",
          "type": "string"
        },
        {
          "internalType": "string",
          "name": "email",
          "type": "string"
        },
        {
          "internalType": "string",
          "name": "companyAddress",
          "type": "string"
        },
        {
          "internalType": "string",
          "name": "country",
          "type": "string"
        },
        {
          "internalType": "string",
          "name": "website",
          "type": "string"
        },
        {
          "internalType": "string",
          "name": "state",
          "type": "string"
        }
      ],
      "name": "createProject",
      "outputs": [
        {
          "internalType": "bool",
          "name": "",
          "type": "bool"
        }
      ],
      "stateMutability": "nonpayable",
      "type": "function"
    },
    {
      "inputs": [
        {
          "internalType": "uint256",
          "name": "id",
          "type": "uint256"
        }
      ],
      "name": "deleteProject",
      "outputs": [
        {
          "internalType": "bool",
          "name": "",
          "type": "bool"
        }
      ],
      "stateMutability": "nonpayable",
      "type": "function"
    },
    {
      "inputs": [
        {
          "internalType": "uint256",
          "name": "id",
          "type": "uint256"
        }
      ],
      "name": "getProject",
      "outputs": [
        {
          "components": [
            {
              "internalType": "uint256",
              "name": "id",
              "type": "uint256"
            },
            {
              "internalType": "address",
              "name": "owner",
              "type": "address"
            },
            {
              "internalType": "string",
              "name": "name",
              "type": "string"
            },
            {
              "internalType": "string",
              "name": "title",
              "type": "string"
            },
            {
              "internalType": "string",
              "name": "description",
              "type": "string"
            },
            {
              "internalType": "string",
              "name": "imageURL",
              "type": "string"
            },
            {
              "internalType": "uint256",
              "name": "goal",
              "type": "uint256"
            },
            {
              "internalType": "uint256",
              "name": "raised",
              "type": "uint256"
            },
            {
              "internalType": "uint256",
              "name": "timestamp",
              "type": "uint256"
            },
            {
              "internalType": "uint256",
              "name": "expiresAt",
              "type": "uint256"
            },
            {
              "internalType": "string",
              "name": "organizationType",
              "type": "string"
            },
            {
              "internalType": "string",
              "name": "companyName",
              "type": "string"
            },
            {
              "internalType": "string",
              "name": "email",
              "type": "string"
            },
            {
              "internalType": "string",
              "name": "companyAddress",
              "type": "string"
            },
            {
              "internalType": "string",
              "name": "country",
              "type": "string"
            },
            {
              "internalType": "string",
              "name": "state",
              "type": "string"
            },
            {
              "internalType": "string",
              "name": "website",
              "type": "string"
            },
            {
              "internalType": "uint256",
              "name": "investors",
              "type": "uint256"
            },
            {
              "internalType": "enum KoinFunds.statusEnum",
              "name": "status",
              "type": "uint8"
            }
          ],
          "internalType": "struct KoinFunds.projectStruct",
          "name": "",
          "type": "tuple"
        }
      ],
      "stateMutability": "view",
      "type": "function"
    },
    {
      "inputs": [
        {
          "internalType": "uint256",
          "name": "id",
          "type": "uint256"
        }
      ],
      "name": "getProjectInvestors",
      "outputs": [
        {
          "components": [
            {
              "internalType": "address",
              "name": "owner",
              "type": "address"
            },
            {
              "internalType": "uint256",
              "name": "contributions",
              "type": "uint256"
            },
            {
              "internalType": "uint256",
              "name": "timestamp",
              "type": "uint256"
            },
            {
              "internalType": "bool",
              "name": "refunded",
              "type": "bool"
            }
          ],
          "internalType": "struct KoinFunds.investorStruct[]",
          "name": "",
          "type": "tuple[]"
        }
      ],
      "stateMutability": "view",
      "type": "function"
    },
    {
      "inputs": [],
      "name": "getProjects",
      "outputs": [
        {
          "components": [
            {
              "internalType": "uint256",
              "name": "id",
              "type": "uint256"
            },
            {
              "internalType": "address",
              "name": "owner",
              "type": "address"
            },
            {
              "internalType": "string",
              "name": "name",
              "type": "string"
            },
            {
              "internalType": "string",
              "name": "title",
              "type": "string"
            },
            {
              "internalType": "string",
              "name": "description",
              "type": "string"
            },
            {
              "internalType": "string",
              "name": "imageURL",
              "type": "string"
            },
            {
              "internalType": "uint256",
              "name": "goal",
              "type": "uint256"
            },
            {
              "internalType": "uint256",
              "name": "raised",
              "type": "uint256"
            },
            {
              "internalType": "uint256",
              "name": "timestamp",
              "type": "uint256"
            },
            {
              "internalType": "uint256",
              "name": "expiresAt",
              "type": "uint256"
            },
            {
              "internalType": "string",
              "name": "organizationType",
              "type": "string"
            },
            {
              "internalType": "string",
              "name": "companyName",
              "type": "string"
            },
            {
              "internalType": "string",
              "name": "email",
              "type": "string"
            },
            {
              "internalType": "string",
              "name": "companyAddress",
              "type": "string"
            },
            {
              "internalType": "string",
              "name": "country",
              "type": "string"
            },
            {
              "internalType": "string",
              "name": "state",
              "type": "string"
            },
            {
              "internalType": "string",
              "name": "website",
              "type": "string"
            },
            {
              "internalType": "uint256",
              "name": "investors",
              "type": "uint256"
            },
            {
              "internalType": "enum KoinFunds.statusEnum",
              "name": "status",
              "type": "uint8"
            }
          ],
          "internalType": "struct KoinFunds.projectStruct[]",
          "name": "",
          "type": "tuple[]"
        }
      ],
      "stateMutability": "view",
      "type": "function"
    },
    {
      "inputs": [],
      "name": "owner",
      "outputs": [
        {
          "internalType": "address",
          "name": "",
          "type": "address"
        }
      ],
      "stateMutability": "view",
      "type": "function"
    },
    {
      "inputs": [
        {
          "internalType": "uint256",
          "name": "id",
          "type": "uint256"
        }
      ],
      "name": "payOutProject",
      "outputs": [
        {
          "internalType": "bool",
          "name": "",
          "type": "bool"
        }
      ],
      "stateMutability": "nonpayable",
      "type": "function"
    },
    {
      "inputs": [
        {
          "internalType": "uint256",
          "name": "id",
          "type": "uint256"
        }
      ],
      "name": "performInvestment",
      "outputs": [
        {
          "internalType": "bool",
          "name": "",
          "type": "bool"
        }
      ],
      "stateMutability": "payable",
      "type": "function"
    },
    {
      "inputs": [],
      "name": "projectCount",
      "outputs": [
        {
          "internalType": "uint256",
          "name": "",
          "type": "uint256"
        }
      ],
      "stateMutability": "view",
      "type": "function"
    },
    {
      "inputs": [],
      "name": "projectTax",
      "outputs": [
        {
          "internalType": "uint256",
          "name": "",
          "type": "uint256"
        }
      ],
      "stateMutability": "view",
      "type": "function"
    },
    {
      "inputs": [
        {
          "internalType": "uint256",
          "name": "id",
          "type": "uint256"
        }
      ],
      "name": "requestRefund",
      "outputs": [
        {
          "internalType": "bool",
          "name": "",
          "type": "bool"
        }
      ],
      "stateMutability": "nonpayable",
      "type": "function"
    },
    {
      "inputs": [],
      "name": "stats",
      "outputs": [
        {
          "internalType": "uint256",
          "name": "totalProjects",
          "type": "uint256"
        },
        {
          "internalType": "uint256",
          "name": "totalInvestments",
          "type": "uint256"
        },
        {
          "internalType": "uint256",
          "name": "totalDonations",
          "type": "uint256"
        }
      ],
      "stateMutability": "view",
      "type": "function"
    },
    {
      "inputs": [
        {
          "internalType": "uint256",
          "name": "id",
          "type": "uint256"
        },
        {
          "internalType": "string",
          "name": "title",
          "type": "string"
        },
        {
          "internalType": "string",
          "name": "description",
          "type": "string"
        },
        {
          "internalType": "string",
          "name": "imageURL",
          "type": "string"
        },
        {
          "internalType": "uint256",
          "name": "expiresAt",
          "type": "uint256"
        }
      ],
      "name": "updateProject",
      "outputs": [
        {
          "internalType": "bool",
          "name": "",
          "type": "bool"
        }
      ],
      "stateMutability": "nonpayable",
      "type": "function"
    }
  ],
  "bytecode": "0x60806040523480156200001157600080fd5b506040516200321a3803806200321a83398101604081905262000034916200004f565b600080546001600160a01b0319163317905560015562000069565b6000602082840312156200006257600080fd5b5051919050565b6131a180620000796000396000f3fe6080604052600436106100e85760003560e01c80639a3fa8c71161008a578063d24cd3ec11610059578063d24cd3ec14610276578063d80528ae1461028c578063dcc60128146102c6578063f0f3f2c8146102e857600080fd5b80639a3fa8c714610200578063a4b2409e14610220578063b531dcba14610240578063b69ef8a81461026057600080fd5b80633e45c8af116100c65780633e45c8af146101665780634ac64939146101885780634cd0cb28146101a85780638da5cb5b146101c857600080fd5b8063061d4868146100ed57806336fbad26146101155780633842ced314610139575b600080fd5b6101006100fb3660046129ac565b610315565b60405190151581526020015b60405180910390f35b34801561012157600080fd5b5061012b60025481565b60405190815260200161010c565b34801561014557600080fd5b506101596101543660046129ac565b610709565b60405161010c91906129c5565b34801561017257600080fd5b506101866101813660046129ac565b6107ab565b005b34801561019457600080fd5b506101006101a3366004612ad7565b6107f7565b3480156101b457600080fd5b506101006101c33660046129ac565b6110a2565b3480156101d457600080fd5b506000546101e8906001600160a01b031681565b6040516001600160a01b03909116815260200161010c565b34801561020c57600080fd5b5061010061021b366004612cc8565b611256565b34801561022c57600080fd5b5061010061023b3660046129ac565b6114fc565b34801561024c57600080fd5b5061010061025b3660046129ac565b6115f6565b34801561026c57600080fd5b5061012b60035481565b34801561028257600080fd5b5061012b60015481565b34801561029857600080fd5b506004546005546006546102ab92919083565b6040805193845260208401929092529082015260600161010c565b3480156102d257600080fd5b506102db6116ee565b60405161010c9190612f8c565b3480156102f457600080fd5b506103086103033660046129ac565b611e19565b60405161010c9190612fee565b600080341161036b5760405162461bcd60e51b815260206004820152601c60248201527f4574686572206d7573742062652067726561746572207468616e20300000000060448201526064015b60405180910390fd5b6000828152600a602052604090205460ff166103995760405162461bcd60e51b815260040161036290613008565b6000600783815481106103ae576103ae613033565b600091825260209091206012601390920201015460ff1660048111156103d6576103d6612daf565b146104235760405162461bcd60e51b815260206004820152601860248201527f50726f6a656374206e6f206c6f6e6765722061637469766500000000000000006044820152606401610362565b600160046001016000828254610439919061305f565b90915550506006805434919060009061045390849061305f565b92505081905550346007838154811061046e5761046e613033565b9060005260206000209060130201600701600082825461048e919061305f565b925050819055506001600783815481106104aa576104aa613033565b906000526020600020906013020160110160008282546104ca919061305f565b9091555050600082815260096020908152604080832081516080808201845233808352348387019081524284870181815260608087018b8152885460018082018b55998d529b8b902097516004909c0290970180546001600160a01b0319166001600160a01b03909c169b909b178b559251968a01969096559451600289015592516003909701805460ff1916971515979097179096558351888152948501829052600f918501919091526e494e564553544d454e54204d41444560881b908401529082015260008051602061314c8339815191529060a00160405180910390a2600782815481106105be576105be613033565b906000526020600020906013020160060154600783815481106105e3576105e3613033565b9060005260206000209060130201600701541061068e5760016007838154811061060f5761060f613033565b60009182526020909120601260139092020101805460ff1916600183600481111561063c5761063c612daf565b02179055506007828154811061065457610654613033565b90600052602060002090601302016007015460036000828254610677919061305f565b90915550610686905082612565565b506001919050565b600782815481106106a1576106a1613033565b9060005260206000209060130201600901544210610686576002600783815481106106ce576106ce613033565b60009182526020909120601260139092020101805460ff191660018360048111156106fb576106fb612daf565b021790555061068682612695565b606060096000838152602001908152602001600020805480602002602001604051908101604052809291908181526020016000905b828210156107a0576000848152602090819020604080516080810182526004860290920180546001600160a01b03168352600180820154848601526002820154928401929092526003015460ff1615156060830152908352909201910161073e565b505050509050919050565b6000546001600160a01b031633146107f25760405162461bcd60e51b815260206004820152600a6024820152694f776e6572206f6e6c7960b01b6044820152606401610362565b600155565b6000808d51116108415760405162461bcd60e51b81526020600482015260156024820152745469746c652063616e6e6f7420626520656d70747960581b6044820152606401610362565b60008c51116108925760405162461bcd60e51b815260206004820152601b60248201527f4465736372697074696f6e2063616e6e6f7420626520656d70747900000000006044820152606401610362565b60008b51116108df5760405162461bcd60e51b8152602060048201526019602482015278496d6167652075726c2063616e6e6f7420626520656d70747960381b6044820152606401610362565b60008a116109265760405162461bcd60e51b8152602060048201526014602482015273086dee6e840c6c2dcdcdee840c4ca406040cae8d60631b6044820152606401610362565b60008851116109815760405162461bcd60e51b815260206004820152602160248201527f4f7267616e697a6174696f6e20747970652063616e6e6f7420626520656d70746044820152607960f81b6064820152608401610362565b60008751116109d25760405162461bcd60e51b815260206004820152601c60248201527f436f6d70616e79206e616d652063616e6e6f7420626520656d707479000000006044820152606401610362565b6000865111610a1b5760405162461bcd60e51b8152602060048201526015602482015274456d61696c2063616e6e6f7420626520656d70747960581b6044820152606401610362565b6000855111610a6c5760405162461bcd60e51b815260206004820152601760248201527f416464726573732063616e6e6f7420626520656d7074790000000000000000006044820152606401610362565b6000845111610abd5760405162461bcd60e51b815260206004820152601760248201527f436f756e7472792063616e6e6f7420626520656d7074790000000000000000006044820152606401610362565b6000825111610b065760405162461bcd60e51b815260206004820152601560248201527453746174652063616e6e6f7420626520656d70747960581b6044820152606401610362565b6000835111610b575760405162461bcd60e51b815260206004820152601760248201527f576562736974652063616e6e6f7420626520656d7074790000000000000000006044820152606401610362565b610b5f612868565b6002548160000181815250503381602001906001600160a01b031690816001600160a01b0316815250508d81606001819052508c81608001819052508b8160a001819052508a8160c00181815250504281610100018181525050898161012001818152505088816101400181905250878161016001819052508681610180018190525085816101a0018190525084816101c0018190525082816101e001819052508381610200018190525060078190806001815401808255809150506001900390600052602060002090601302016000909190919091506000820151816000015560208201518160010160006101000a8154816001600160a01b0302191690836001600160a01b031602179055506040820151816002019080519060200190610c89929190612913565b5060608201518051610ca5916003840191602090910190612913565b5060808201518051610cc1916004840191602090910190612913565b5060a08201518051610cdd916005840191602090910190612913565b5060c0820151600682015560e08201516007820155610100820151600882015561012082015160098201556101408201518051610d2491600a840191602090910190612913565b506101608201518051610d4191600b840191602090910190612913565b506101808201518051610d5e91600c840191602090910190612913565b506101a08201518051610d7b91600d840191602090910190612913565b506101c08201518051610d9891600e840191602090910190612913565b506101e08201518051610db591600f840191602090910190612913565b506102008201518051610dd2916010840191602090910190612913565b50610220820151601182015561024082015160128201805460ff19166001836004811115610e0257610e02612daf565b021790555050600280546000908152600a602090815260408083208054600160ff19909116811790915533845260088352818420805480830182559085529383902087516013909502019384558683015190840180546001600160a01b0319166001600160a01b0390921691909117905585015180518695509293610e8f93908501929190910190612913565b5060608201518051610eab916003840191602090910190612913565b5060808201518051610ec7916004840191602090910190612913565b5060a08201518051610ee3916005840191602090910190612913565b5060c0820151600682015560e08201516007820155610100820151600882015561012082015160098201556101408201518051610f2a91600a840191602090910190612913565b506101608201518051610f4791600b840191602090910190612913565b506101808201518051610f6491600c840191602090910190612913565b506101a08201518051610f8191600d840191602090910190612913565b506101c08201518051610f9e91600e840191602090910190612913565b506101e08201518051610fbb91600f840191602090910190612913565b506102008201518051610fd8916010840191602090910190612913565b50610220820151601182015561024082015160128201805460ff1916600183600481111561100857611008612daf565b02179055505050600160046000016000828254611025919061305f565b909155505060028054339160008051602061314c8339815191529190600061104c83613077565b9091555060408051918252606060208301819052600f908301526e141493d29150d50810d49150551151608a1b6080830152429082015260a00160405180910390a25060019d9c50505050505050505050505050565b6000818152600a602052604081205460ff166110d05760405162461bcd60e51b815260040161036290613008565b6000600783815481106110e5576110e5613033565b600091825260209091206012601390920201015460ff16600481111561110d5761110d612daf565b1461114b5760405162461bcd60e51b815260206004820152600e60248201526d141c9bda9958dd0818db1bdcd95960921b6044820152606401610362565b6007828154811061115e5761115e613033565b60009182526020909120601390910201600101546001600160a01b031633148061119257506000546001600160a01b031633145b6111ae5760405162461bcd60e51b815260040161036290613092565b6003600783815481106111c3576111c3613033565b60009182526020909120601260139092020101805460ff191660018360048111156111f0576111f0612daf565b02179055506111fe82612695565b60408051838152606060208201819052600f908201526e141493d29150d50811115311551151608a1b608082015242818301529051339160008051602061314c833981519152919081900360a00190a2506001919050565b60006007868154811061126b5761126b613033565b60009182526020909120601390910201600101546001600160a01b031633146112a65760405162461bcd60e51b815260040161036290613092565b6000868152600a602052604090205460ff166112d45760405162461bcd60e51b815260040161036290613008565b600085511161131d5760405162461bcd60e51b81526020600482015260156024820152745469746c652063616e6e6f7420626520656d70747960581b6044820152606401610362565b600084511161136e5760405162461bcd60e51b815260206004820152601b60248201527f4465736372697074696f6e2063616e6e6f7420626520656d70747900000000006044820152606401610362565b60008351116113bb5760405162461bcd60e51b8152602060048201526019602482015278496d6167652075726c2063616e6e6f7420626520656d70747960381b6044820152606401610362565b84600787815481106113cf576113cf613033565b906000526020600020906013020160030190805190602001906113f3929190612913565b50836007878154811061140857611408613033565b9060005260206000209060130201600401908051906020019061142c929190612913565b50826007878154811061144157611441613033565b90600052602060002090601302016005019080519060200190611465929190612913565b50816007878154811061147a5761147a613033565b906000526020600020906013020160090181905550336001600160a01b031660008051602061314c83398151915287426040516114e8929190918252606060208301819052600f908301526e141493d29150d50815541110551151608a1b6080830152604082015260a00190565b60405180910390a250600195945050505050565b600060026007838154811061151357611513613033565b600091825260209091206012601390920201015460ff16600481111561153b5761153b612daf565b141580611583575060036007838154811061155857611558613033565b600091825260209091206012601390920201015460ff16600481111561158057611580612daf565b14155b6115e15760405162461bcd60e51b815260206004820152602960248201527f50726f6a656374206e6f74206d61726b6564206173207265766572746564206f6044820152681c8819195b195d195960ba1b6064820152608401610362565b6002600783815481106106ce576106ce613033565b600060016007838154811061160d5761160d613033565b600091825260209091206012601390920201015460ff16600481111561163557611635612daf565b146116825760405162461bcd60e51b815260206004820152601a60248201527f50726f6a656374206e6f206c6f6e67657220415050524f5645440000000000006044820152606401610362565b6007828154811061169557611695613033565b60009182526020909120601390910201600101546001600160a01b03163314806116c957506000546001600160a01b031633145b6116e55760405162461bcd60e51b815260040161036290613092565b61068682612565565b60606007805480602002602001604051908101604052809291908181526020016000905b82821015611e105760008481526020908190206040805161026081018252601386029092018054835260018101546001600160a01b03169383019390935260028301805492939291840191611766906130b8565b80601f0160208091040260200160405190810160405280929190818152602001828054611792906130b8565b80156117df5780601f106117b4576101008083540402835291602001916117df565b820191906000526020600020905b8154815290600101906020018083116117c257829003601f168201915b505050505081526020016003820180546117f8906130b8565b80601f0160208091040260200160405190810160405280929190818152602001828054611824906130b8565b80156118715780601f1061184657610100808354040283529160200191611871565b820191906000526020600020905b81548152906001019060200180831161185457829003601f168201915b5050505050815260200160048201805461188a906130b8565b80601f01602080910402602001604051908101604052809291908181526020018280546118b6906130b8565b80156119035780601f106118d857610100808354040283529160200191611903565b820191906000526020600020905b8154815290600101906020018083116118e657829003601f168201915b5050505050815260200160058201805461191c906130b8565b80601f0160208091040260200160405190810160405280929190818152602001828054611948906130b8565b80156119955780601f1061196a57610100808354040283529160200191611995565b820191906000526020600020905b81548152906001019060200180831161197857829003601f168201915b5050505050815260200160068201548152602001600782015481526020016008820154815260200160098201548152602001600a820180546119d6906130b8565b80601f0160208091040260200160405190810160405280929190818152602001828054611a02906130b8565b8015611a4f5780601f10611a2457610100808354040283529160200191611a4f565b820191906000526020600020905b815481529060010190602001808311611a3257829003601f168201915b50505050508152602001600b82018054611a68906130b8565b80601f0160208091040260200160405190810160405280929190818152602001828054611a94906130b8565b8015611ae15780601f10611ab657610100808354040283529160200191611ae1565b820191906000526020600020905b815481529060010190602001808311611ac457829003601f168201915b50505050508152602001600c82018054611afa906130b8565b80601f0160208091040260200160405190810160405280929190818152602001828054611b26906130b8565b8015611b735780601f10611b4857610100808354040283529160200191611b73565b820191906000526020600020905b815481529060010190602001808311611b5657829003601f168201915b50505050508152602001600d82018054611b8c906130b8565b80601f0160208091040260200160405190810160405280929190818152602001828054611bb8906130b8565b8015611c055780601f10611bda57610100808354040283529160200191611c05565b820191906000526020600020905b815481529060010190602001808311611be857829003601f168201915b50505050508152602001600e82018054611c1e906130b8565b80601f0160208091040260200160405190810160405280929190818152602001828054611c4a906130b8565b8015611c975780601f10611c6c57610100808354040283529160200191611c97565b820191906000526020600020905b815481529060010190602001808311611c7a57829003601f168201915b50505050508152602001600f82018054611cb0906130b8565b80601f0160208091040260200160405190810160405280929190818152602001828054611cdc906130b8565b8015611d295780601f10611cfe57610100808354040283529160200191611d29565b820191906000526020600020905b815481529060010190602001808311611d0c57829003601f168201915b50505050508152602001601082018054611d42906130b8565b80601f0160208091040260200160405190810160405280929190818152602001828054611d6e906130b8565b8015611dbb5780601f10611d9057610100808354040283529160200191611dbb565b820191906000526020600020905b815481529060010190602001808311611d9e57829003601f168201915b505050918352505060118201546020820152601282015460409091019060ff166004811115611dec57611dec612daf565b6004811115611dfd57611dfd612daf565b8152505081526020019060010190611712565b50505050905090565b611e21612868565b6000828152600a602052604090205460ff16611e4f5760405162461bcd60e51b815260040161036290613008565b60078281548110611e6257611e62613033565b906000526020600020906013020160405180610260016040529081600082015481526020016001820160009054906101000a90046001600160a01b03166001600160a01b03166001600160a01b03168152602001600282018054611ec5906130b8565b80601f0160208091040260200160405190810160405280929190818152602001828054611ef1906130b8565b8015611f3e5780601f10611f1357610100808354040283529160200191611f3e565b820191906000526020600020905b815481529060010190602001808311611f2157829003601f168201915b50505050508152602001600382018054611f57906130b8565b80601f0160208091040260200160405190810160405280929190818152602001828054611f83906130b8565b8015611fd05780601f10611fa557610100808354040283529160200191611fd0565b820191906000526020600020905b815481529060010190602001808311611fb357829003601f168201915b50505050508152602001600482018054611fe9906130b8565b80601f0160208091040260200160405190810160405280929190818152602001828054612015906130b8565b80156120625780601f1061203757610100808354040283529160200191612062565b820191906000526020600020905b81548152906001019060200180831161204557829003601f168201915b5050505050815260200160058201805461207b906130b8565b80601f01602080910402602001604051908101604052809291908181526020018280546120a7906130b8565b80156120f45780601f106120c9576101008083540402835291602001916120f4565b820191906000526020600020905b8154815290600101906020018083116120d757829003601f168201915b5050505050815260200160068201548152602001600782015481526020016008820154815260200160098201548152602001600a82018054612135906130b8565b80601f0160208091040260200160405190810160405280929190818152602001828054612161906130b8565b80156121ae5780601f10612183576101008083540402835291602001916121ae565b820191906000526020600020905b81548152906001019060200180831161219157829003601f168201915b50505050508152602001600b820180546121c7906130b8565b80601f01602080910402602001604051908101604052809291908181526020018280546121f3906130b8565b80156122405780601f1061221557610100808354040283529160200191612240565b820191906000526020600020905b81548152906001019060200180831161222357829003601f168201915b50505050508152602001600c82018054612259906130b8565b80601f0160208091040260200160405190810160405280929190818152602001828054612285906130b8565b80156122d25780601f106122a7576101008083540402835291602001916122d2565b820191906000526020600020905b8154815290600101906020018083116122b557829003601f168201915b50505050508152602001600d820180546122eb906130b8565b80601f0160208091040260200160405190810160405280929190818152602001828054612317906130b8565b80156123645780601f1061233957610100808354040283529160200191612364565b820191906000526020600020905b81548152906001019060200180831161234757829003601f168201915b50505050508152602001600e8201805461237d906130b8565b80601f01602080910402602001604051908101604052809291908181526020018280546123a9906130b8565b80156123f65780601f106123cb576101008083540402835291602001916123f6565b820191906000526020600020905b8154815290600101906020018083116123d957829003601f168201915b50505050508152602001600f8201805461240f906130b8565b80601f016020809104026020016040519081016040528092919081815260200182805461243b906130b8565b80156124885780601f1061245d57610100808354040283529160200191612488565b820191906000526020600020905b81548152906001019060200180831161246b57829003601f168201915b505050505081526020016010820180546124a1906130b8565b80601f01602080910402602001604051908101604052809291908181526020018280546124cd906130b8565b801561251a5780601f106124ef5761010080835404028352916020019161251a565b820191906000526020600020905b8154815290600101906020018083116124fd57829003601f168201915b505050918352505060118201546020820152601282015460409091019060ff16600481111561254b5761254b612daf565b600481111561255c5761255c612daf565b90525092915050565b60006007828154811061257a5761257a613033565b906000526020600020906013020160070154905060006064600154836125a091906130f3565b6125aa9190613112565b90506125ee600784815481106125c2576125c2613033565b60009182526020909120600160139092020101546001600160a01b03166125e98385613134565b612803565b600054612604906001600160a01b031682612803565b6007838154811061261757612617613033565b9060005260206000209060130201600701546003600082825461263a9190613134565b9091555050604080518481526060602082018190526010908201526f141493d29150d508141052510813d55560821b608082015242818301529051339160008051602061314c833981519152919081900360a00190a2505050565b60005b6000828152600960205260409020548110156127ff5760008281526009602052604081208054839081106126ce576126ce613033565b6000918252602080832060049092029091015485835260099091526040822080546001600160a01b039092169350908490811061270d5761270d613033565b9060005260206000209060040201600101549050600160096000868152602001908152602001600020848154811061274757612747613033565b906000526020600020906004020160030160006101000a81548160ff0219169083151502179055504260096000868152602001908152602001600020848154811061279457612794613033565b9060005260206000209060040201600201819055506127b38282612803565b6001600460010160008282546127c99190613134565b9091555050600680548291906000906127e3908490613134565b92505081905550505080806127f790613077565b915050612698565b5050565b6000826001600160a01b03168260405160006040518083038185875af1925050503d8060008114612850576040519150601f19603f3d011682016040523d82523d6000602084013e612855565b606091505b505090508061286357600080fd5b505050565b6040518061026001604052806000815260200160006001600160a01b03168152602001606081526020016060815260200160608152602001606081526020016000815260200160008152602001600081526020016000815260200160608152602001606081526020016060815260200160608152602001606081526020016060815260200160608152602001600081526020016000600481111561290e5761290e612daf565b905290565b82805461291f906130b8565b90600052602060002090601f0160209004810192826129415760008555612987565b82601f1061295a57805160ff1916838001178555612987565b82800160010185558215612987579182015b8281111561298757825182559160200191906001019061296c565b50612993929150612997565b5090565b5b808211156129935760008155600101612998565b6000602082840312156129be57600080fd5b5035919050565b602080825282518282018190526000919060409081850190868401855b82811015612a2757815180516001600160a01b0316855286810151878601528581015186860152606090810151151590850152608090930192908501906001016129e2565b5091979650505050505050565b634e487b7160e01b600052604160045260246000fd5b600082601f830112612a5b57600080fd5b813567ffffffffffffffff80821115612a7657612a76612a34565b604051601f8301601f19908116603f01168101908282118183101715612a9e57612a9e612a34565b81604052838152866020858801011115612ab757600080fd5b836020870160208301376000602085830101528094505050505092915050565b6000806000806000806000806000806000806101808d8f031215612afa57600080fd5b67ffffffffffffffff8d351115612b1057600080fd5b612b1d8e8e358f01612a4a565b9b5067ffffffffffffffff60208e01351115612b3857600080fd5b612b488e60208f01358f01612a4a565b9a5067ffffffffffffffff60408e01351115612b6357600080fd5b612b738e60408f01358f01612a4a565b995060608d0135985060808d0135975067ffffffffffffffff60a08e01351115612b9c57600080fd5b612bac8e60a08f01358f01612a4a565b965067ffffffffffffffff60c08e01351115612bc757600080fd5b612bd78e60c08f01358f01612a4a565b955067ffffffffffffffff60e08e01351115612bf257600080fd5b612c028e60e08f01358f01612a4a565b945067ffffffffffffffff6101008e01351115612c1e57600080fd5b612c2f8e6101008f01358f01612a4a565b935067ffffffffffffffff6101208e01351115612c4b57600080fd5b612c5c8e6101208f01358f01612a4a565b925067ffffffffffffffff6101408e01351115612c7857600080fd5b612c898e6101408f01358f01612a4a565b915067ffffffffffffffff6101608e01351115612ca557600080fd5b612cb68e6101608f01358f01612a4a565b90509295989b509295989b509295989b565b600080600080600060a08688031215612ce057600080fd5b85359450602086013567ffffffffffffffff80821115612cff57600080fd5b612d0b89838a01612a4a565b95506040880135915080821115612d2157600080fd5b612d2d89838a01612a4a565b94506060880135915080821115612d4357600080fd5b50612d5088828901612a4a565b95989497509295608001359392505050565b6000815180845260005b81811015612d8857602081850181015186830182015201612d6c565b81811115612d9a576000602083870101525b50601f01601f19169290920160200192915050565b634e487b7160e01b600052602160045260246000fd5b60058110612de357634e487b7160e01b600052602160045260246000fd5b9052565b6000610260825184526020830151612e0a60208601826001600160a01b03169052565b506040830151816040860152612e2282860182612d62565b91505060608301518482036060860152612e3c8282612d62565b91505060808301518482036080860152612e568282612d62565b91505060a083015184820360a0860152612e708282612d62565b91505060c083015160c085015260e083015160e08501526101008084015181860152506101208084015181860152506101408084015185830382870152612eb78382612d62565b925050506101608084015185830382870152612ed38382612d62565b925050506101808084015185830382870152612eef8382612d62565b925050506101a08084015185830382870152612f0b8382612d62565b925050506101c08084015185830382870152612f278382612d62565b925050506101e08084015185830382870152612f438382612d62565b925050506102008084015185830382870152612f5f8382612d62565b9250505061022080840151818601525061024080840151612f8282870182612dc5565b5090949350505050565b6000602080830181845280855180835260408601915060408160051b870101925083870160005b82811015612fe157603f19888603018452612fcf858351612de7565b94509285019290850190600101612fb3565b5092979650505050505050565b6020815260006130016020830184612de7565b9392505050565b602080825260119082015270141c9bda9958dd081b9bdd08199bdd5b99607a1b604082015260600190565b634e487b7160e01b600052603260045260246000fd5b634e487b7160e01b600052601160045260246000fd5b6000821982111561307257613072613049565b500190565b600060001982141561308b5761308b613049565b5060010190565b6020808252600c908201526b155b985d5d1a1bdc9a5e995960a21b604082015260600190565b600181811c908216806130cc57607f821691505b602082108114156130ed57634e487b7160e01b600052602260045260246000fd5b50919050565b600081600019048311821515161561310d5761310d613049565b500290565b60008261312f57634e487b7160e01b600052601260045260246000fd5b500490565b60008282101561314657613146613049565b50039056feaee8e5d3bbb2f71a951b5632cee20f7ac487b9f8ab4f66a236f7694b13af7c6aa2646970667358221220f55a68ca2c1c851dd9aa37182173a9ee87072ea6966f91a66db00176c751382464736f6c634300080b0033",
  "linkReferences": {},
  "deployedLinkReferences": {}
}