{
  "_format": "hh-sol-artifact-1",
  "contractName": "KoinFunds",
  "sourceName": "src/contracts/KoinFunds.sol",
  "abi": [
    {
      "inputs": [
        {
          "internalType": "uint256",
          "name": "_projectTax",
          "type": "uint256"
        }
      ],
      "stateMutability": "nonpayable",
      "type": "constructor"
    },
    {
      "anonymous": false,
      "inputs": [
        {
          "indexed": false,
          "internalType": "uint256",
          "name": "id",
          "type": "uint256"
        },
        {
          "indexed": false,
          "internalType": "string",
          "name": "actionType",
          "type": "string"
        },
        {
          "indexed": true,
          "internalType": "address",
          "name": "executor",
          "type": "address"
        },
        {
          "indexed": false,
          "internalType": "uint256",
          "name": "timestamp",
          "type": "uint256"
        }
      ],
      "name": "Action",
      "type": "event"
    },
    {
      "inputs": [],
      "name": "balance",
      "outputs": [
        {
          "internalType": "uint256",
          "name": "",
          "type": "uint256"
        }
      ],
      "stateMutability": "view",
      "type": "function"
    },
    {
      "inputs": [
        {
          "internalType": "uint256",
          "name": "_tax",
          "type": "uint256"
        }
      ],
      "name": "changeTax",
      "outputs": [],
      "stateMutability": "nonpayable",
      "type": "function"
    },
    {
      "inputs": [
        {
          "internalType": "string",
          "name": "title",
          "type": "string"
        },
        {
          "internalType": "string",
          "name": "description",
          "type": "string"
        },
        {
          "internalType": "string",
          "name": "imageUrl",
          "type": "string"
        },
        {
          "internalType": "uint256",
          "name": "goal",
          "type": "uint256"
        },
        {
          "internalType": "uint256",
          "name": "expiresAt",
          "type": "uint256"
        },
        {
          "internalType": "string",
          "name": "organizationType",
          "type": "string"
        },
        {
          "internalType": "string",
          "name": "email",
          "type": "string"
        },
        {
          "internalType": "string",
          "name": "country",
          "type": "string"
        },
        {
          "internalType": "string",
          "name": "state",
          "type": "string"
        }
      ],
      "name": "createProject",
      "outputs": [
        {
          "internalType": "bool",
          "name": "",
          "type": "bool"
        }
      ],
      "stateMutability": "nonpayable",
      "type": "function"
    },
    {
      "inputs": [
        {
          "internalType": "uint256",
          "name": "id",
          "type": "uint256"
        }
      ],
      "name": "deleteProject",
      "outputs": [
        {
          "internalType": "bool",
          "name": "",
          "type": "bool"
        }
      ],
      "stateMutability": "nonpayable",
      "type": "function"
    },
    {
      "inputs": [
        {
          "internalType": "uint256",
          "name": "id",
          "type": "uint256"
        }
      ],
      "name": "getProject",
      "outputs": [
        {
          "components": [
            {
              "internalType": "uint256",
              "name": "id",
              "type": "uint256"
            },
            {
              "internalType": "address",
              "name": "owner",
              "type": "address"
            },
            {
              "internalType": "string",
              "name": "title",
              "type": "string"
            },
            {
              "internalType": "string",
              "name": "description",
              "type": "string"
            },
            {
              "internalType": "string",
              "name": "organizationType",
              "type": "string"
            },
            {
              "internalType": "uint256",
              "name": "goal",
              "type": "uint256"
            },
            {
              "internalType": "uint256",
              "name": "expiresAt",
              "type": "uint256"
            },
            {
              "internalType": "string",
              "name": "email",
              "type": "string"
            },
            {
              "internalType": "string",
              "name": "country",
              "type": "string"
            },
            {
              "internalType": "string",
              "name": "state",
              "type": "string"
            },
            {
              "internalType": "string",
              "name": "imageUrl",
              "type": "string"
            },
            {
              "internalType": "uint256",
              "name": "raised",
              "type": "uint256"
            },
            {
              "internalType": "uint256",
              "name": "timestamp",
              "type": "uint256"
            },
            {
              "internalType": "uint256",
              "name": "investors",
              "type": "uint256"
            },
            {
              "internalType": "enum KoinFunds.statusEnum",
              "name": "status",
              "type": "uint8"
            }
          ],
          "internalType": "struct KoinFunds.projectStruct",
          "name": "",
          "type": "tuple"
        }
      ],
      "stateMutability": "view",
      "type": "function"
    },
    {
      "inputs": [
        {
          "internalType": "uint256",
          "name": "id",
          "type": "uint256"
        }
      ],
      "name": "getProjectInvestors",
      "outputs": [
        {
          "components": [
            {
              "internalType": "address",
              "name": "owner",
              "type": "address"
            },
            {
              "internalType": "uint256",
              "name": "contributions",
              "type": "uint256"
            },
            {
              "internalType": "uint256",
              "name": "timestamp",
              "type": "uint256"
            },
            {
              "internalType": "bool",
              "name": "refunded",
              "type": "bool"
            }
          ],
          "internalType": "struct KoinFunds.investorStruct[]",
          "name": "",
          "type": "tuple[]"
        }
      ],
      "stateMutability": "view",
      "type": "function"
    },
    {
      "inputs": [],
      "name": "getProjects",
      "outputs": [
        {
          "components": [
            {
              "internalType": "uint256",
              "name": "id",
              "type": "uint256"
            },
            {
              "internalType": "address",
              "name": "owner",
              "type": "address"
            },
            {
              "internalType": "string",
              "name": "title",
              "type": "string"
            },
            {
              "internalType": "string",
              "name": "description",
              "type": "string"
            },
            {
              "internalType": "string",
              "name": "organizationType",
              "type": "string"
            },
            {
              "internalType": "uint256",
              "name": "goal",
              "type": "uint256"
            },
            {
              "internalType": "uint256",
              "name": "expiresAt",
              "type": "uint256"
            },
            {
              "internalType": "string",
              "name": "email",
              "type": "string"
            },
            {
              "internalType": "string",
              "name": "country",
              "type": "string"
            },
            {
              "internalType": "string",
              "name": "state",
              "type": "string"
            },
            {
              "internalType": "string",
              "name": "imageUrl",
              "type": "string"
            },
            {
              "internalType": "uint256",
              "name": "raised",
              "type": "uint256"
            },
            {
              "internalType": "uint256",
              "name": "timestamp",
              "type": "uint256"
            },
            {
              "internalType": "uint256",
              "name": "investors",
              "type": "uint256"
            },
            {
              "internalType": "enum KoinFunds.statusEnum",
              "name": "status",
              "type": "uint8"
            }
          ],
          "internalType": "struct KoinFunds.projectStruct[]",
          "name": "",
          "type": "tuple[]"
        }
      ],
      "stateMutability": "view",
      "type": "function"
    },
    {
      "inputs": [],
      "name": "owner",
      "outputs": [
        {
          "internalType": "address",
          "name": "",
          "type": "address"
        }
      ],
      "stateMutability": "view",
      "type": "function"
    },
    {
      "inputs": [
        {
          "internalType": "uint256",
          "name": "id",
          "type": "uint256"
        }
      ],
      "name": "payOutProject",
      "outputs": [
        {
          "internalType": "bool",
          "name": "",
          "type": "bool"
        }
      ],
      "stateMutability": "nonpayable",
      "type": "function"
    },
    {
      "inputs": [
        {
          "internalType": "uint256",
          "name": "id",
          "type": "uint256"
        }
      ],
      "name": "performInvestment",
      "outputs": [
        {
          "internalType": "bool",
          "name": "",
          "type": "bool"
        }
      ],
      "stateMutability": "payable",
      "type": "function"
    },
    {
      "inputs": [],
      "name": "projectCount",
      "outputs": [
        {
          "internalType": "uint256",
          "name": "",
          "type": "uint256"
        }
      ],
      "stateMutability": "view",
      "type": "function"
    },
    {
      "inputs": [],
      "name": "projectTax",
      "outputs": [
        {
          "internalType": "uint256",
          "name": "",
          "type": "uint256"
        }
      ],
      "stateMutability": "view",
      "type": "function"
    },
    {
      "inputs": [
        {
          "internalType": "uint256",
          "name": "id",
          "type": "uint256"
        }
      ],
      "name": "requestRefund",
      "outputs": [
        {
          "internalType": "bool",
          "name": "",
          "type": "bool"
        }
      ],
      "stateMutability": "nonpayable",
      "type": "function"
    },
    {
      "inputs": [],
      "name": "stats",
      "outputs": [
        {
          "internalType": "uint256",
          "name": "totalProjects",
          "type": "uint256"
        },
        {
          "internalType": "uint256",
          "name": "totalInvestors",
          "type": "uint256"
        },
        {
          "internalType": "uint256",
          "name": "totalDonations",
          "type": "uint256"
        }
      ],
      "stateMutability": "view",
      "type": "function"
    },
    {
      "inputs": [
        {
          "internalType": "uint256",
          "name": "id",
          "type": "uint256"
        },
        {
          "internalType": "string",
          "name": "title",
          "type": "string"
        },
        {
          "internalType": "string",
          "name": "description",
          "type": "string"
        },
        {
          "internalType": "string",
          "name": "imageUrl",
          "type": "string"
        },
        {
          "internalType": "uint256",
          "name": "expiresAt",
          "type": "uint256"
        }
      ],
      "name": "updateProject",
      "outputs": [
        {
          "internalType": "bool",
          "name": "",
          "type": "bool"
        }
      ],
      "stateMutability": "nonpayable",
      "type": "function"
    }
  ],
  "bytecode": "0x608060405234801561001057600080fd5b5060405162002a3b38038062002a3b8339810160408190526100319161004b565b600080546001600160a01b03191633179055600155610064565b60006020828403121561005d57600080fd5b5051919050565b6129c780620000746000396000f3fe6080604052600436106100e85760003560e01c8063a45170961161008a578063d24cd3ec11610059578063d24cd3ec14610276578063d80528ae1461028c578063dcc60128146102c6578063f0f3f2c8146102e857600080fd5b8063a451709614610200578063a4b2409e14610220578063b531dcba14610240578063b69ef8a81461026057600080fd5b80633e45c8af116100c65780633e45c8af146101665780634cd0cb28146101885780638da5cb5b146101a85780639a3fa8c7146101e057600080fd5b8063061d4868146100ed57806336fbad26146101155780633842ced314610139575b600080fd5b6101006100fb366004612304565b610315565b60405190151581526020015b60405180910390f35b34801561012157600080fd5b5061012b60025481565b60405190815260200161010c565b34801561014557600080fd5b50610159610154366004612304565b610709565b60405161010c919061231d565b34801561017257600080fd5b50610186610181366004612304565b6107ab565b005b34801561019457600080fd5b506101006101a3366004612304565b6107f7565b3480156101b457600080fd5b506000546101c8906001600160a01b031681565b6040516001600160a01b03909116815260200161010c565b3480156101ec57600080fd5b506101006101fb36600461242f565b6109ab565b34801561020c57600080fd5b5061010061021b3660046124c9565b610c51565b34801561022c57600080fd5b5061010061023b366004612304565b611300565b34801561024c57600080fd5b5061010061025b366004612304565b6113fa565b34801561026c57600080fd5b5061012b60035481565b34801561028257600080fd5b5061012b60015481565b34801561029857600080fd5b506004546005546006546102ab92919083565b6040805193845260208401929092529082015260600161010c565b3480156102d257600080fd5b506102db6114f2565b60405161010c91906127b2565b3480156102f457600080fd5b50610308610303366004612304565b6119d5565b60405161010c9190612814565b600080341161036b5760405162461bcd60e51b815260206004820152601c60248201527f4574686572206d7573742062652067726561746572207468616e20300000000060448201526064015b60405180910390fd5b6000828152600a602052604090205460ff166103995760405162461bcd60e51b81526004016103629061282e565b6000600783815481106103ae576103ae612859565b60009182526020909120600e600f90920201015460ff1660048111156103d6576103d6612645565b146104235760405162461bcd60e51b815260206004820152601860248201527f50726f6a656374206e6f206c6f6e6765722061637469766500000000000000006044820152606401610362565b6001600460010160008282546104399190612885565b909155505060068054349190600090610453908490612885565b92505081905550346007838154811061046e5761046e612859565b90600052602060002090600f0201600b01600082825461048e9190612885565b925050819055506001600783815481106104aa576104aa612859565b90600052602060002090600f0201600d0160008282546104ca9190612885565b9091555050600082815260096020908152604080832081516080808201845233808352348387019081524284870181815260608087018b8152885460018082018b55998d529b8b902097516004909c0290970180546001600160a01b0319166001600160a01b03909c169b909b178b559251968a01969096559451600289015592516003909701805460ff1916971515979097179096558351888152948501829052600f918501919091526e494e564553544d454e54204d41444560881b90840152908201526000805160206129728339815191529060a00160405180910390a2600782815481106105be576105be612859565b90600052602060002090600f020160050154600783815481106105e3576105e3612859565b90600052602060002090600f0201600b01541061068e5760016007838154811061060f5761060f612859565b60009182526020909120600e600f9092020101805460ff1916600183600481111561063c5761063c612645565b02179055506007828154811061065457610654612859565b90600052602060002090600f0201600b0154600360008282546106779190612885565b90915550610686905082611ed9565b506001919050565b600782815481106106a1576106a1612859565b90600052602060002090600f0201600601544210610686576002600783815481106106ce576106ce612859565b60009182526020909120600e600f9092020101805460ff191660018360048111156106fb576106fb612645565b021790555061068682612009565b606060096000838152602001908152602001600020805480602002602001604051908101604052809291908181526020016000905b828210156107a0576000848152602090819020604080516080810182526004860290920180546001600160a01b03168352600180820154848601526002820154928401929092526003015460ff1615156060830152908352909201910161073e565b505050509050919050565b6000546001600160a01b031633146107f25760405162461bcd60e51b815260206004820152600a6024820152694f776e6572206f6e6c7960b01b6044820152606401610362565b600155565b6000818152600a602052604081205460ff166108255760405162461bcd60e51b81526004016103629061282e565b60006007838154811061083a5761083a612859565b60009182526020909120600e600f90920201015460ff16600481111561086257610862612645565b146108a05760405162461bcd60e51b815260206004820152600e60248201526d141c9bda9958dd0818db1bdcd95960921b6044820152606401610362565b600782815481106108b3576108b3612859565b60009182526020909120600f90910201600101546001600160a01b03163314806108e757506000546001600160a01b031633145b6109035760405162461bcd60e51b81526004016103629061289d565b60036007838154811061091857610918612859565b60009182526020909120600e600f9092020101805460ff1916600183600481111561094557610945612645565b021790555061095382612009565b60408051838152606060208201819052600f908201526e141493d29150d50811115311551151608a1b6080820152428183015290513391600080516020612972833981519152919081900360a00190a2506001919050565b6000600786815481106109c0576109c0612859565b60009182526020909120600f90910201600101546001600160a01b031633146109fb5760405162461bcd60e51b81526004016103629061289d565b6000868152600a602052604090205460ff16610a295760405162461bcd60e51b81526004016103629061282e565b6000855111610a725760405162461bcd60e51b81526020600482015260156024820152745469746c652063616e6e6f7420626520656d70747960581b6044820152606401610362565b6000845111610ac35760405162461bcd60e51b815260206004820152601b60248201527f4465736372697074696f6e2063616e6e6f7420626520656d70747900000000006044820152606401610362565b6000835111610b105760405162461bcd60e51b8152602060048201526019602482015278496d6167652075726c2063616e6e6f7420626520656d70747960381b6044820152606401610362565b8460078781548110610b2457610b24612859565b90600052602060002090600f02016002019080519060200190610b489291906121dc565b508360078781548110610b5d57610b5d612859565b90600052602060002090600f02016003019080519060200190610b819291906121dc565b508260078781548110610b9657610b96612859565b90600052602060002090600f0201600a019080519060200190610bba9291906121dc565b508160078781548110610bcf57610bcf612859565b90600052602060002090600f020160060181905550336001600160a01b03166000805160206129728339815191528742604051610c3d929190918252606060208301819052600f908301526e141493d29150d50815541110551151608a1b6080830152604082015260a00190565b60405180910390a250600195945050505050565b6000808a5111610c9b5760405162461bcd60e51b81526020600482015260156024820152745469746c652063616e6e6f7420626520656d70747960581b6044820152606401610362565b6000895111610cec5760405162461bcd60e51b815260206004820152601b60248201527f4465736372697074696f6e2063616e6e6f7420626520656d70747900000000006044820152606401610362565b6000885111610d395760405162461bcd60e51b8152602060048201526019602482015278496d6167652075726c2063616e6e6f7420626520656d70747960381b6044820152606401610362565b60008711610d805760405162461bcd60e51b8152602060048201526014602482015273086dee6e840c6c2dcdcdee840c4ca406040cae8d60631b6044820152606401610362565b6000855111610ddb5760405162461bcd60e51b815260206004820152602160248201527f4f7267616e697a6174696f6e20747970652063616e6e6f7420626520656d70746044820152607960f81b6064820152608401610362565b6000845111610e245760405162461bcd60e51b8152602060048201526015602482015274456d61696c2063616e6e6f7420626520656d70747960581b6044820152606401610362565b6000835111610e755760405162461bcd60e51b815260206004820152601760248201527f436f756e7472792063616e6e6f7420626520656d7074790000000000000000006044820152606401610362565b6000825111610ebe5760405162461bcd60e51b815260206004820152601560248201527453746174652063616e6e6f7420626520656d70747960581b6044820152606401610362565b610ec6612260565b6002548152336020808301918252604083018d8152606084018d905261014084018c905260a084018b90524261018085015260c084018a90526080840189905260e08401889052610100840187905261012084018690526007805460018101825560009190915284517fa66cc928b5edb82af9bd49922954155ab7b0942694bea4ce44661d9a8736c688600f90920291820190815593517fa66cc928b5edb82af9bd49922954155ab7b0942694bea4ce44661d9a8736c689820180546001600160a01b0319166001600160a01b0390921691909117905590518051859493610fd2937fa66cc928b5edb82af9bd49922954155ab7b0942694bea4ce44661d9a8736c68a019201906121dc565b5060608201518051610fee9160038401916020909101906121dc565b506080820151805161100a9160048401916020909101906121dc565b5060a0820151600582015560c0820151600682015560e0820151805161103a9160078401916020909101906121dc565b5061010082015180516110579160088401916020909101906121dc565b5061012082015180516110749160098401916020909101906121dc565b50610140820151805161109191600a8401916020909101906121dc565b50610160820151600b820155610180820151600c8201556101a0820151600d8201556101c0820151600e8201805460ff191660018360048111156110d7576110d7612645565b021790555050600280546000908152600a602090815260408083208054600160ff1990911681179091553384526008835281842080548083018255908552938390208751600f909502019384558683015190840180546001600160a01b0319166001600160a01b0390921691909117905585015180518695509293611164939085019291909101906121dc565b50606082015180516111809160038401916020909101906121dc565b506080820151805161119c9160048401916020909101906121dc565b5060a0820151600582015560c0820151600682015560e082015180516111cc9160078401916020909101906121dc565b5061010082015180516111e99160088401916020909101906121dc565b5061012082015180516112069160098401916020909101906121dc565b50610140820151805161122391600a8401916020909101906121dc565b50610160820151600b820155610180820151600c8201556101a0820151600d8201556101c0820151600e8201805460ff1916600183600481111561126957611269612645565b021790555050506001600460000160008282546112869190612885565b9091555050600280543391600080516020612972833981519152919060006112ad836128c3565b9091555060408051918252606060208301819052600f908301526e141493d29150d50810d49150551151608a1b6080830152429082015260a00160405180910390a25060019a9950505050505050505050565b600060026007838154811061131757611317612859565b60009182526020909120600e600f90920201015460ff16600481111561133f5761133f612645565b141580611387575060036007838154811061135c5761135c612859565b60009182526020909120600e600f90920201015460ff16600481111561138457611384612645565b14155b6113e55760405162461bcd60e51b815260206004820152602960248201527f50726f6a656374206e6f74206d61726b6564206173207265766572746564206f6044820152681c8819195b195d195960ba1b6064820152608401610362565b6002600783815481106106ce576106ce612859565b600060016007838154811061141157611411612859565b60009182526020909120600e600f90920201015460ff16600481111561143957611439612645565b146114865760405162461bcd60e51b815260206004820152601a60248201527f50726f6a656374206e6f206c6f6e67657220415050524f5645440000000000006044820152606401610362565b6007828154811061149957611499612859565b60009182526020909120600f90910201600101546001600160a01b03163314806114cd57506000546001600160a01b031633145b6114e95760405162461bcd60e51b81526004016103629061289d565b61068682611ed9565b60606007805480602002602001604051908101604052809291908181526020016000905b828210156119cc576000848152602090819020604080516101e081018252600f86029092018054835260018101546001600160a01b0316938301939093526002830180549293929184019161156a906128de565b80601f0160208091040260200160405190810160405280929190818152602001828054611596906128de565b80156115e35780601f106115b8576101008083540402835291602001916115e3565b820191906000526020600020905b8154815290600101906020018083116115c657829003601f168201915b505050505081526020016003820180546115fc906128de565b80601f0160208091040260200160405190810160405280929190818152602001828054611628906128de565b80156116755780601f1061164a57610100808354040283529160200191611675565b820191906000526020600020905b81548152906001019060200180831161165857829003601f168201915b5050505050815260200160048201805461168e906128de565b80601f01602080910402602001604051908101604052809291908181526020018280546116ba906128de565b80156117075780601f106116dc57610100808354040283529160200191611707565b820191906000526020600020905b8154815290600101906020018083116116ea57829003601f168201915b505050505081526020016005820154815260200160068201548152602001600782018054611734906128de565b80601f0160208091040260200160405190810160405280929190818152602001828054611760906128de565b80156117ad5780601f10611782576101008083540402835291602001916117ad565b820191906000526020600020905b81548152906001019060200180831161179057829003601f168201915b505050505081526020016008820180546117c6906128de565b80601f01602080910402602001604051908101604052809291908181526020018280546117f2906128de565b801561183f5780601f106118145761010080835404028352916020019161183f565b820191906000526020600020905b81548152906001019060200180831161182257829003601f168201915b50505050508152602001600982018054611858906128de565b80601f0160208091040260200160405190810160405280929190818152602001828054611884906128de565b80156118d15780601f106118a6576101008083540402835291602001916118d1565b820191906000526020600020905b8154815290600101906020018083116118b457829003601f168201915b50505050508152602001600a820180546118ea906128de565b80601f0160208091040260200160405190810160405280929190818152602001828054611916906128de565b80156119635780601f1061193857610100808354040283529160200191611963565b820191906000526020600020905b81548152906001019060200180831161194657829003601f168201915b5050509183525050600b8201546020820152600c8201546040820152600d8201546060820152600e82015460809091019060ff1660048111156119a8576119a8612645565b60048111156119b9576119b9612645565b8152505081526020019060010190611516565b50505050905090565b6119dd612260565b6000828152600a602052604090205460ff16611a0b5760405162461bcd60e51b81526004016103629061282e565b60078281548110611a1e57611a1e612859565b90600052602060002090600f0201604051806101e0016040529081600082015481526020016001820160009054906101000a90046001600160a01b03166001600160a01b03166001600160a01b03168152602001600282018054611a81906128de565b80601f0160208091040260200160405190810160405280929190818152602001828054611aad906128de565b8015611afa5780601f10611acf57610100808354040283529160200191611afa565b820191906000526020600020905b815481529060010190602001808311611add57829003601f168201915b50505050508152602001600382018054611b13906128de565b80601f0160208091040260200160405190810160405280929190818152602001828054611b3f906128de565b8015611b8c5780601f10611b6157610100808354040283529160200191611b8c565b820191906000526020600020905b815481529060010190602001808311611b6f57829003601f168201915b50505050508152602001600482018054611ba5906128de565b80601f0160208091040260200160405190810160405280929190818152602001828054611bd1906128de565b8015611c1e5780601f10611bf357610100808354040283529160200191611c1e565b820191906000526020600020905b815481529060010190602001808311611c0157829003601f168201915b505050505081526020016005820154815260200160068201548152602001600782018054611c4b906128de565b80601f0160208091040260200160405190810160405280929190818152602001828054611c77906128de565b8015611cc45780601f10611c9957610100808354040283529160200191611cc4565b820191906000526020600020905b815481529060010190602001808311611ca757829003601f168201915b50505050508152602001600882018054611cdd906128de565b80601f0160208091040260200160405190810160405280929190818152602001828054611d09906128de565b8015611d565780601f10611d2b57610100808354040283529160200191611d56565b820191906000526020600020905b815481529060010190602001808311611d3957829003601f168201915b50505050508152602001600982018054611d6f906128de565b80601f0160208091040260200160405190810160405280929190818152602001828054611d9b906128de565b8015611de85780601f10611dbd57610100808354040283529160200191611de8565b820191906000526020600020905b815481529060010190602001808311611dcb57829003601f168201915b50505050508152602001600a82018054611e01906128de565b80601f0160208091040260200160405190810160405280929190818152602001828054611e2d906128de565b8015611e7a5780601f10611e4f57610100808354040283529160200191611e7a565b820191906000526020600020905b815481529060010190602001808311611e5d57829003601f168201915b5050509183525050600b8201546020820152600c8201546040820152600d8201546060820152600e82015460809091019060ff166004811115611ebf57611ebf612645565b6004811115611ed057611ed0612645565b90525092915050565b600060078281548110611eee57611eee612859565b90600052602060002090600f0201600b015490506000606460015483611f149190612919565b611f1e9190612938565b9050611f6260078481548110611f3657611f36612859565b600091825260209091206001600f9092020101546001600160a01b0316611f5d838561295a565b612177565b600054611f78906001600160a01b031682612177565b60078381548110611f8b57611f8b612859565b90600052602060002090600f0201600b015460036000828254611fae919061295a565b9091555050604080518481526060602082018190526010908201526f141493d29150d508141052510813d55560821b6080820152428183015290513391600080516020612972833981519152919081900360a00190a2505050565b60005b60008281526009602052604090205481101561217357600082815260096020526040812080548390811061204257612042612859565b6000918252602080832060049092029091015485835260099091526040822080546001600160a01b039092169350908490811061208157612081612859565b906000526020600020906004020160010154905060016009600086815260200190815260200160002084815481106120bb576120bb612859565b906000526020600020906004020160030160006101000a81548160ff0219169083151502179055504260096000868152602001908152602001600020848154811061210857612108612859565b9060005260206000209060040201600201819055506121278282612177565b60016004600101600082825461213d919061295a565b90915550506006805482919060009061215790849061295a565b925050819055505050808061216b906128c3565b91505061200c565b5050565b6000826001600160a01b03168260405160006040518083038185875af1925050503d80600081146121c4576040519150601f19603f3d011682016040523d82523d6000602084013e6121c9565b606091505b50509050806121d757600080fd5b505050565b8280546121e8906128de565b90600052602060002090601f01602090048101928261220a5760008555612250565b82601f1061222357805160ff1916838001178555612250565b82800160010185558215612250579182015b82811115612250578251825591602001919060010190612235565b5061225c9291506122ef565b5090565b604051806101e001604052806000815260200160006001600160a01b03168152602001606081526020016060815260200160608152602001600081526020016000815260200160608152602001606081526020016060815260200160608152602001600081526020016000815260200160008152602001600060048111156122ea576122ea612645565b905290565b5b8082111561225c57600081556001016122f0565b60006020828403121561231657600080fd5b5035919050565b602080825282518282018190526000919060409081850190868401855b8281101561237f57815180516001600160a01b03168552868101518786015285810151868601526060908101511515908501526080909301929085019060010161233a565b5091979650505050505050565b634e487b7160e01b600052604160045260246000fd5b600082601f8301126123b357600080fd5b813567ffffffffffffffff808211156123ce576123ce61238c565b604051601f8301601f19908116603f011681019082821181831017156123f6576123f661238c565b8160405283815286602085880101111561240f57600080fd5b836020870160208301376000602085830101528094505050505092915050565b600080600080600060a0868803121561244757600080fd5b85359450602086013567ffffffffffffffff8082111561246657600080fd5b61247289838a016123a2565b9550604088013591508082111561248857600080fd5b61249489838a016123a2565b945060608801359150808211156124aa57600080fd5b506124b7888289016123a2565b95989497509295608001359392505050565b60008060008060008060008060006101208a8c0312156124e857600080fd5b893567ffffffffffffffff8082111561250057600080fd5b61250c8d838e016123a2565b9a5060208c013591508082111561252257600080fd5b61252e8d838e016123a2565b995060408c013591508082111561254457600080fd5b6125508d838e016123a2565b985060608c0135975060808c0135965060a08c013591508082111561257457600080fd5b6125808d838e016123a2565b955060c08c013591508082111561259657600080fd5b6125a28d838e016123a2565b945060e08c01359150808211156125b857600080fd5b6125c48d838e016123a2565b93506101008c01359150808211156125db57600080fd5b506125e88c828d016123a2565b9150509295985092959850929598565b6000815180845260005b8181101561261e57602081850181015186830182015201612602565b81811115612630576000602083870101525b50601f01601f19169290920160200192915050565b634e487b7160e01b600052602160045260246000fd5b6005811061267957634e487b7160e01b600052602160045260246000fd5b9052565b60006101e08251845260208301516126a060208601826001600160a01b03169052565b5060408301518160408601526126b8828601826125f8565b915050606083015184820360608601526126d282826125f8565b915050608083015184820360808601526126ec82826125f8565b91505060a083015160a085015260c083015160c085015260e083015184820360e086015261271a82826125f8565b915050610100808401518583038287015261273583826125f8565b92505050610120808401518583038287015261275183826125f8565b92505050610140808401518583038287015261276d83826125f8565b925050506101608084015181860152506101808084015181860152506101a08084015181860152506101c0808401516127a88287018261265b565b5090949350505050565b6000602080830181845280855180835260408601915060408160051b870101925083870160005b8281101561280757603f198886030184526127f585835161267d565b945092850192908501906001016127d9565b5092979650505050505050565b602081526000612827602083018461267d565b9392505050565b602080825260119082015270141c9bda9958dd081b9bdd08199bdd5b99607a1b604082015260600190565b634e487b7160e01b600052603260045260246000fd5b634e487b7160e01b600052601160045260246000fd5b600082198211156128985761289861286f565b500190565b6020808252600c908201526b155b985d5d1a1bdc9a5e995960a21b604082015260600190565b60006000198214156128d7576128d761286f565b5060010190565b600181811c908216806128f257607f821691505b6020821081141561291357634e487b7160e01b600052602260045260246000fd5b50919050565b60008160001904831182151516156129335761293361286f565b500290565b60008261295557634e487b7160e01b600052601260045260246000fd5b500490565b60008282101561296c5761296c61286f565b50039056feaee8e5d3bbb2f71a951b5632cee20f7ac487b9f8ab4f66a236f7694b13af7c6aa26469706673582212208d2418a6da54334af0ccb4b92fba8f62d1b3b00f2bdd6bce72dc09989aa6e26b64736f6c634300080b0033",
  "linkReferences": {},
  "deployedLinkReferences": {}
}