{
  "_format": "hh-sol-artifact-1",
  "contractName": "KoinFunds",
  "sourceName": "src/contracts/KoinFunds.sol",
  "abi": [
    {
      "inputs": [
        {
          "internalType": "uint256",
          "name": "_projectTax",
          "type": "uint256"
        }
      ],
      "stateMutability": "nonpayable",
      "type": "constructor"
    },
    {
      "anonymous": false,
      "inputs": [
        {
          "indexed": false,
          "internalType": "uint256",
          "name": "id",
          "type": "uint256"
        },
        {
          "indexed": false,
          "internalType": "string",
          "name": "actionType",
          "type": "string"
        },
        {
          "indexed": true,
          "internalType": "address",
          "name": "executor",
          "type": "address"
        },
        {
          "indexed": false,
          "internalType": "uint256",
          "name": "timestamp",
          "type": "uint256"
        }
      ],
      "name": "Action",
      "type": "event"
    },
    {
      "inputs": [],
      "name": "balance",
      "outputs": [
        {
          "internalType": "uint256",
          "name": "",
          "type": "uint256"
        }
      ],
      "stateMutability": "view",
      "type": "function"
    },
    {
      "inputs": [
        {
          "internalType": "uint256",
          "name": "_tax",
          "type": "uint256"
        }
      ],
      "name": "changeTax",
      "outputs": [],
      "stateMutability": "nonpayable",
      "type": "function"
    },
    {
      "inputs": [
        {
          "internalType": "string",
          "name": "title",
          "type": "string"
        },
        {
          "internalType": "string",
          "name": "description",
          "type": "string"
        },
        {
          "internalType": "string",
          "name": "imageURL",
          "type": "string"
        },
        {
          "internalType": "uint256",
          "name": "cost",
          "type": "uint256"
        },
        {
          "internalType": "uint256",
          "name": "expiresAt",
          "type": "uint256"
        }
      ],
      "name": "createProject",
      "outputs": [
        {
          "internalType": "bool",
          "name": "",
          "type": "bool"
        }
      ],
      "stateMutability": "nonpayable",
      "type": "function"
    },
    {
      "inputs": [
        {
          "internalType": "uint256",
          "name": "id",
          "type": "uint256"
        }
      ],
      "name": "deleteProject",
      "outputs": [
        {
          "internalType": "bool",
          "name": "",
          "type": "bool"
        }
      ],
      "stateMutability": "nonpayable",
      "type": "function"
    },
    {
      "inputs": [
        {
          "internalType": "uint256",
          "name": "id",
          "type": "uint256"
        }
      ],
      "name": "getProject",
      "outputs": [
        {
          "components": [
            {
              "internalType": "uint256",
              "name": "id",
              "type": "uint256"
            },
            {
              "internalType": "address",
              "name": "owner",
              "type": "address"
            },
            {
              "internalType": "string",
              "name": "title",
              "type": "string"
            },
            {
              "internalType": "string",
              "name": "description",
              "type": "string"
            },
            {
              "internalType": "string",
              "name": "imageURL",
              "type": "string"
            },
            {
              "internalType": "uint256",
              "name": "cost",
              "type": "uint256"
            },
            {
              "internalType": "uint256",
              "name": "raised",
              "type": "uint256"
            },
            {
              "internalType": "uint256",
              "name": "timestamp",
              "type": "uint256"
            },
            {
              "internalType": "uint256",
              "name": "expiresAt",
              "type": "uint256"
            },
            {
              "internalType": "uint256",
              "name": "investors",
              "type": "uint256"
            },
            {
              "internalType": "enum KoinFunds.statusEnum",
              "name": "status",
              "type": "uint8"
            }
          ],
          "internalType": "struct KoinFunds.projectStruct",
          "name": "",
          "type": "tuple"
        }
      ],
      "stateMutability": "view",
      "type": "function"
    },
    {
      "inputs": [
        {
          "internalType": "uint256",
          "name": "id",
          "type": "uint256"
        }
      ],
      "name": "getProjectInvestors",
      "outputs": [
        {
          "components": [
            {
              "internalType": "address",
              "name": "owner",
              "type": "address"
            },
            {
              "internalType": "uint256",
              "name": "contributions",
              "type": "uint256"
            },
            {
              "internalType": "uint256",
              "name": "timestamp",
              "type": "uint256"
            },
            {
              "internalType": "bool",
              "name": "refunded",
              "type": "bool"
            }
          ],
          "internalType": "struct KoinFunds.investorStruct[]",
          "name": "",
          "type": "tuple[]"
        }
      ],
      "stateMutability": "view",
      "type": "function"
    },
    {
      "inputs": [],
      "name": "getProjects",
      "outputs": [
        {
          "components": [
            {
              "internalType": "uint256",
              "name": "id",
              "type": "uint256"
            },
            {
              "internalType": "address",
              "name": "owner",
              "type": "address"
            },
            {
              "internalType": "string",
              "name": "title",
              "type": "string"
            },
            {
              "internalType": "string",
              "name": "description",
              "type": "string"
            },
            {
              "internalType": "string",
              "name": "imageURL",
              "type": "string"
            },
            {
              "internalType": "uint256",
              "name": "cost",
              "type": "uint256"
            },
            {
              "internalType": "uint256",
              "name": "raised",
              "type": "uint256"
            },
            {
              "internalType": "uint256",
              "name": "timestamp",
              "type": "uint256"
            },
            {
              "internalType": "uint256",
              "name": "expiresAt",
              "type": "uint256"
            },
            {
              "internalType": "uint256",
              "name": "investors",
              "type": "uint256"
            },
            {
              "internalType": "enum KoinFunds.statusEnum",
              "name": "status",
              "type": "uint8"
            }
          ],
          "internalType": "struct KoinFunds.projectStruct[]",
          "name": "",
          "type": "tuple[]"
        }
      ],
      "stateMutability": "view",
      "type": "function"
    },
    {
      "inputs": [],
      "name": "owner",
      "outputs": [
        {
          "internalType": "address",
          "name": "",
          "type": "address"
        }
      ],
      "stateMutability": "view",
      "type": "function"
    },
    {
      "inputs": [
        {
          "internalType": "uint256",
          "name": "id",
          "type": "uint256"
        }
      ],
      "name": "payOutProject",
      "outputs": [
        {
          "internalType": "bool",
          "name": "",
          "type": "bool"
        }
      ],
      "stateMutability": "nonpayable",
      "type": "function"
    },
    {
      "inputs": [
        {
          "internalType": "uint256",
          "name": "id",
          "type": "uint256"
        }
      ],
      "name": "performInvestment",
      "outputs": [
        {
          "internalType": "bool",
          "name": "",
          "type": "bool"
        }
      ],
      "stateMutability": "payable",
      "type": "function"
    },
    {
      "inputs": [],
      "name": "projectCount",
      "outputs": [
        {
          "internalType": "uint256",
          "name": "",
          "type": "uint256"
        }
      ],
      "stateMutability": "view",
      "type": "function"
    },
    {
      "inputs": [],
      "name": "projectTax",
      "outputs": [
        {
          "internalType": "uint256",
          "name": "",
          "type": "uint256"
        }
      ],
      "stateMutability": "view",
      "type": "function"
    },
    {
      "inputs": [
        {
          "internalType": "uint256",
          "name": "id",
          "type": "uint256"
        }
      ],
      "name": "requestRefund",
      "outputs": [
        {
          "internalType": "bool",
          "name": "",
          "type": "bool"
        }
      ],
      "stateMutability": "nonpayable",
      "type": "function"
    },
    {
      "inputs": [],
      "name": "stats",
      "outputs": [
        {
          "internalType": "uint256",
          "name": "totalProjects",
          "type": "uint256"
        },
        {
          "internalType": "uint256",
          "name": "totalInvestments",
          "type": "uint256"
        },
        {
          "internalType": "uint256",
          "name": "totalDonations",
          "type": "uint256"
        }
      ],
      "stateMutability": "view",
      "type": "function"
    },
    {
      "inputs": [
        {
          "internalType": "uint256",
          "name": "id",
          "type": "uint256"
        },
        {
          "internalType": "string",
          "name": "title",
          "type": "string"
        },
        {
          "internalType": "string",
          "name": "description",
          "type": "string"
        },
        {
          "internalType": "string",
          "name": "imageURL",
          "type": "string"
        },
        {
          "internalType": "uint256",
          "name": "expiresAt",
          "type": "uint256"
        }
      ],
      "name": "updateProject",
      "outputs": [
        {
          "internalType": "bool",
          "name": "",
          "type": "bool"
        }
      ],
      "stateMutability": "nonpayable",
      "type": "function"
    }
  ],
  "bytecode": "0x608060405234801561001057600080fd5b5060405161223e38038061223e83398101604081905261002f91610049565b600080546001600160a01b03191633179055600155610062565b60006020828403121561005b57600080fd5b5051919050565b6121cd806100716000396000f3fe6080604052600436106100e85760003560e01c80639a3fa8c71161008a578063d24cd3ec11610059578063d24cd3ec14610276578063d80528ae1461028c578063dcc60128146102c6578063f0f3f2c8146102e857600080fd5b80639a3fa8c714610200578063a4b2409e14610220578063b531dcba14610240578063b69ef8a81461026057600080fd5b80633842ced3116100c65780633842ced3146101595780633e45c8af146101865780634cd0cb28146101a85780638da5cb5b146101c857600080fd5b8063056c29ee146100ed578063061d48681461012257806336fbad2614610135575b600080fd5b3480156100f957600080fd5b5061010d610108366004611cb2565b610315565b60405190151581526020015b60405180910390f35b61010d610130366004611d4c565b610780565b34801561014157600080fd5b5061014b60025481565b604051908152602001610119565b34801561016557600080fd5b50610179610174366004611d4c565b610b6f565b6040516101199190611d65565b34801561019257600080fd5b506101a66101a1366004611d4c565b610c11565b005b3480156101b457600080fd5b5061010d6101c3366004611d4c565b610c5d565b3480156101d457600080fd5b506000546101e8906001600160a01b031681565b6040516001600160a01b039091168152602001610119565b34801561020c57600080fd5b5061010d61021b366004611dd4565b610e11565b34801561022c57600080fd5b5061010d61023b366004611d4c565b6110b7565b34801561024c57600080fd5b5061010d61025b366004611d4c565b6111b1565b34801561026c57600080fd5b5061014b60035481565b34801561028257600080fd5b5061014b60015481565b34801561029857600080fd5b506004546005546006546102ab92919083565b60408051938452602084019290925290820152606001610119565b3480156102d257600080fd5b506102db6112a9565b6040516101199190611fb8565b3480156102f457600080fd5b50610308610303366004611d4c565b611544565b604051610119919061201a565b6000808651116103645760405162461bcd60e51b81526020600482015260156024820152745469746c652063616e6e6f7420626520656d70747960581b60448201526064015b60405180910390fd5b60008551116103b55760405162461bcd60e51b815260206004820152601b60248201527f4465736372697074696f6e2063616e6e6f7420626520656d7074790000000000604482015260640161035b565b60008451116104025760405162461bcd60e51b8152602060048201526019602482015278496d6167652075726c2063616e6e6f7420626520656d70747960381b604482015260640161035b565b600083116104495760405162461bcd60e51b8152602060048201526014602482015273086dee6e840c6c2dcdcdee840c4ca406040cae8d60631b604482015260640161035b565b610451611b03565b600254815233602080830191825260408301898152606084018990526080840188905260a084018790524260e085015261010084018690526007805460018101825560009190915284517fa66cc928b5edb82af9bd49922954155ab7b0942694bea4ce44661d9a8736c688600b90920291820190815593517fa66cc928b5edb82af9bd49922954155ab7b0942694bea4ce44661d9a8736c689820180546001600160a01b0319166001600160a01b039092169190911790559051805185949361053e937fa66cc928b5edb82af9bd49922954155ab7b0942694bea4ce44661d9a8736c68a01920190611b76565b506060820151805161055a916003840191602090910190611b76565b5060808201518051610576916004840191602090910190611b76565b5060a0820151600582015560c0820151600682015560e0820151600782015561010082015160088201556101208201516009820155610140820151600a8201805460ff191660018360048111156105cf576105cf611ebb565b021790555050600280546000908152600a602090815260408083208054600160ff1990911681179091553384526008835281842080548083018255908552938390208751600b909502019384558683015190840180546001600160a01b0319166001600160a01b039092169190911790558501518051869550929361065c93908501929190910190611b76565b5060608201518051610678916003840191602090910190611b76565b5060808201518051610694916004840191602090910190611b76565b5060a0820151600582015560c0820151600682015560e0820151600782015561010082015160088201556101208201516009820155610140820151600a8201805460ff191660018360048111156106ed576106ed611ebb565b0217905550505060016004600001600082825461070a919061204a565b90915550506002805433916000805160206121788339815191529190600061073183612062565b9091555060408051918252606060208301819052600f908301526e141493d29150d50810d49150551151608a1b6080830152429082015260a00160405180910390a25060019695505050505050565b60008034116107d15760405162461bcd60e51b815260206004820152601c60248201527f4574686572206d7573742062652067726561746572207468616e203000000000604482015260640161035b565b6000828152600a602052604090205460ff166107ff5760405162461bcd60e51b815260040161035b9061207d565b600060078381548110610814576108146120a8565b60009182526020909120600a600b90920201015460ff16600481111561083c5761083c611ebb565b146108895760405162461bcd60e51b815260206004820152601860248201527f50726f6a656374206e6f206c6f6e676572206163746976650000000000000000604482015260640161035b565b60016004600101600082825461089f919061204a565b9091555050600680543491906000906108b990849061204a565b9250508190555034600783815481106108d4576108d46120a8565b90600052602060002090600b020160060160008282546108f4919061204a565b92505081905550600160078381548110610910576109106120a8565b90600052602060002090600b02016009016000828254610930919061204a565b9091555050600082815260096020908152604080832081516080808201845233808352348387019081524284870181815260608087018b8152885460018082018b55998d529b8b902097516004909c0290970180546001600160a01b0319166001600160a01b03909c169b909b178b559251968a01969096559451600289015592516003909701805460ff1916971515979097179096558351888152948501829052600f918501919091526e494e564553544d454e54204d41444560881b90840152908201526000805160206121788339815191529060a00160405180910390a260078281548110610a2457610a246120a8565b90600052602060002090600b02016005015460078381548110610a4957610a496120a8565b90600052602060002090600b02016006015410610af457600160078381548110610a7557610a756120a8565b60009182526020909120600a600b9092020101805460ff19166001836004811115610aa257610aa2611ebb565b021790555060078281548110610aba57610aba6120a8565b90600052602060002090600b02016006015460036000828254610add919061204a565b90915550610aec905082611800565b506001919050565b60078281548110610b0757610b076120a8565b90600052602060002090600b0201600801544210610aec57600260078381548110610b3457610b346120a8565b60009182526020909120600a600b9092020101805460ff19166001836004811115610b6157610b61611ebb565b0217905550610aec82611930565b606060096000838152602001908152602001600020805480602002602001604051908101604052809291908181526020016000905b82821015610c06576000848152602090819020604080516080810182526004860290920180546001600160a01b03168352600180820154848601526002820154928401929092526003015460ff16151560608301529083529092019101610ba4565b505050509050919050565b6000546001600160a01b03163314610c585760405162461bcd60e51b815260206004820152600a6024820152694f776e6572206f6e6c7960b01b604482015260640161035b565b600155565b6000818152600a602052604081205460ff16610c8b5760405162461bcd60e51b815260040161035b9061207d565b600060078381548110610ca057610ca06120a8565b60009182526020909120600a600b90920201015460ff166004811115610cc857610cc8611ebb565b14610d065760405162461bcd60e51b815260206004820152600e60248201526d141c9bda9958dd0818db1bdcd95960921b604482015260640161035b565b60078281548110610d1957610d196120a8565b60009182526020909120600b90910201600101546001600160a01b0316331480610d4d57506000546001600160a01b031633145b610d695760405162461bcd60e51b815260040161035b906120be565b600360078381548110610d7e57610d7e6120a8565b60009182526020909120600a600b9092020101805460ff19166001836004811115610dab57610dab611ebb565b0217905550610db982611930565b60408051838152606060208201819052600f908201526e141493d29150d50811115311551151608a1b6080820152428183015290513391600080516020612178833981519152919081900360a00190a2506001919050565b600060078681548110610e2657610e266120a8565b60009182526020909120600b90910201600101546001600160a01b03163314610e615760405162461bcd60e51b815260040161035b906120be565b6000868152600a602052604090205460ff16610e8f5760405162461bcd60e51b815260040161035b9061207d565b6000855111610ed85760405162461bcd60e51b81526020600482015260156024820152745469746c652063616e6e6f7420626520656d70747960581b604482015260640161035b565b6000845111610f295760405162461bcd60e51b815260206004820152601b60248201527f4465736372697074696f6e2063616e6e6f7420626520656d7074790000000000604482015260640161035b565b6000835111610f765760405162461bcd60e51b8152602060048201526019602482015278496d6167652075726c2063616e6e6f7420626520656d70747960381b604482015260640161035b565b8460078781548110610f8a57610f8a6120a8565b90600052602060002090600b02016002019080519060200190610fae929190611b76565b508360078781548110610fc357610fc36120a8565b90600052602060002090600b02016003019080519060200190610fe7929190611b76565b508260078781548110610ffc57610ffc6120a8565b90600052602060002090600b02016004019080519060200190611020929190611b76565b508160078781548110611035576110356120a8565b90600052602060002090600b020160080181905550336001600160a01b031660008051602061217883398151915287426040516110a3929190918252606060208301819052600f908301526e141493d29150d50815541110551151608a1b6080830152604082015260a00190565b60405180910390a250600195945050505050565b60006002600783815481106110ce576110ce6120a8565b60009182526020909120600a600b90920201015460ff1660048111156110f6576110f6611ebb565b14158061113e5750600360078381548110611113576111136120a8565b60009182526020909120600a600b90920201015460ff16600481111561113b5761113b611ebb565b14155b61119c5760405162461bcd60e51b815260206004820152602960248201527f50726f6a656374206e6f74206d61726b6564206173207265766572746564206f6044820152681c8819195b195d195960ba1b606482015260840161035b565b600260078381548110610b3457610b346120a8565b60006001600783815481106111c8576111c86120a8565b60009182526020909120600a600b90920201015460ff1660048111156111f0576111f0611ebb565b1461123d5760405162461bcd60e51b815260206004820152601a60248201527f50726f6a656374206e6f206c6f6e67657220415050524f564544000000000000604482015260640161035b565b60078281548110611250576112506120a8565b60009182526020909120600b90910201600101546001600160a01b031633148061128457506000546001600160a01b031633145b6112a05760405162461bcd60e51b815260040161035b906120be565b610aec82611800565b60606007805480602002602001604051908101604052809291908181526020016000905b8282101561153b5760008481526020908190206040805161016081018252600b86029092018054835260018101546001600160a01b03169383019390935260028301805492939291840191611321906120e4565b80601f016020809104026020016040519081016040528092919081815260200182805461134d906120e4565b801561139a5780601f1061136f5761010080835404028352916020019161139a565b820191906000526020600020905b81548152906001019060200180831161137d57829003601f168201915b505050505081526020016003820180546113b3906120e4565b80601f01602080910402602001604051908101604052809291908181526020018280546113df906120e4565b801561142c5780601f106114015761010080835404028352916020019161142c565b820191906000526020600020905b81548152906001019060200180831161140f57829003601f168201915b50505050508152602001600482018054611445906120e4565b80601f0160208091040260200160405190810160405280929190818152602001828054611471906120e4565b80156114be5780601f10611493576101008083540402835291602001916114be565b820191906000526020600020905b8154815290600101906020018083116114a157829003601f168201915b505050918352505060058201546020820152600682015460408201526007820154606082015260088201546080820152600982015460a0820152600a82015460c09091019060ff16600481111561151757611517611ebb565b600481111561152857611528611ebb565b81525050815260200190600101906112cd565b50505050905090565b61154c611b03565b6000828152600a602052604090205460ff1661157a5760405162461bcd60e51b815260040161035b9061207d565b6007828154811061158d5761158d6120a8565b90600052602060002090600b020160405180610160016040529081600082015481526020016001820160009054906101000a90046001600160a01b03166001600160a01b03166001600160a01b031681526020016002820180546115f0906120e4565b80601f016020809104026020016040519081016040528092919081815260200182805461161c906120e4565b80156116695780601f1061163e57610100808354040283529160200191611669565b820191906000526020600020905b81548152906001019060200180831161164c57829003601f168201915b50505050508152602001600382018054611682906120e4565b80601f01602080910402602001604051908101604052809291908181526020018280546116ae906120e4565b80156116fb5780601f106116d0576101008083540402835291602001916116fb565b820191906000526020600020905b8154815290600101906020018083116116de57829003601f168201915b50505050508152602001600482018054611714906120e4565b80601f0160208091040260200160405190810160405280929190818152602001828054611740906120e4565b801561178d5780601f106117625761010080835404028352916020019161178d565b820191906000526020600020905b81548152906001019060200180831161177057829003601f168201915b505050918352505060058201546020820152600682015460408201526007820154606082015260088201546080820152600982015460a0820152600a82015460c09091019060ff1660048111156117e6576117e6611ebb565b60048111156117f7576117f7611ebb565b90525092915050565b600060078281548110611815576118156120a8565b90600052602060002090600b0201600601549050600060646001548361183b919061211f565b611845919061213e565b90506118896007848154811061185d5761185d6120a8565b600091825260209091206001600b9092020101546001600160a01b03166118848385612160565b611a9e565b60005461189f906001600160a01b031682611a9e565b600783815481106118b2576118b26120a8565b90600052602060002090600b020160060154600360008282546118d59190612160565b9091555050604080518481526060602082018190526010908201526f141493d29150d508141052510813d55560821b6080820152428183015290513391600080516020612178833981519152919081900360a00190a2505050565b60005b600082815260096020526040902054811015611a9a576000828152600960205260408120805483908110611969576119696120a8565b6000918252602080832060049092029091015485835260099091526040822080546001600160a01b03909216935090849081106119a8576119a86120a8565b906000526020600020906004020160010154905060016009600086815260200190815260200160002084815481106119e2576119e26120a8565b906000526020600020906004020160030160006101000a81548160ff02191690831515021790555042600960008681526020019081526020016000208481548110611a2f57611a2f6120a8565b906000526020600020906004020160020181905550611a4e8282611a9e565b600160046001016000828254611a649190612160565b909155505060068054829190600090611a7e908490612160565b9250508190555050508080611a9290612062565b915050611933565b5050565b6000826001600160a01b03168260405160006040518083038185875af1925050503d8060008114611aeb576040519150601f19603f3d011682016040523d82523d6000602084013e611af0565b606091505b5050905080611afe57600080fd5b505050565b6040518061016001604052806000815260200160006001600160a01b03168152602001606081526020016060815260200160608152602001600081526020016000815260200160008152602001600081526020016000815260200160006004811115611b7157611b71611ebb565b905290565b828054611b82906120e4565b90600052602060002090601f016020900481019282611ba45760008555611bea565b82601f10611bbd57805160ff1916838001178555611bea565b82800160010185558215611bea579182015b82811115611bea578251825591602001919060010190611bcf565b50611bf6929150611bfa565b5090565b5b80821115611bf65760008155600101611bfb565b634e487b7160e01b600052604160045260246000fd5b600082601f830112611c3657600080fd5b813567ffffffffffffffff80821115611c5157611c51611c0f565b604051601f8301601f19908116603f01168101908282118183101715611c7957611c79611c0f565b81604052838152866020858801011115611c9257600080fd5b836020870160208301376000602085830101528094505050505092915050565b600080600080600060a08688031215611cca57600080fd5b853567ffffffffffffffff80821115611ce257600080fd5b611cee89838a01611c25565b96506020880135915080821115611d0457600080fd5b611d1089838a01611c25565b95506040880135915080821115611d2657600080fd5b50611d3388828901611c25565b9598949750949560608101359550608001359392505050565b600060208284031215611d5e57600080fd5b5035919050565b602080825282518282018190526000919060409081850190868401855b82811015611dc757815180516001600160a01b031685528681015187860152858101518686015260609081015115159085015260809093019290850190600101611d82565b5091979650505050505050565b600080600080600060a08688031215611dec57600080fd5b85359450602086013567ffffffffffffffff80821115611e0b57600080fd5b611e1789838a01611c25565b95506040880135915080821115611e2d57600080fd5b611e3989838a01611c25565b94506060880135915080821115611e4f57600080fd5b50611e5c88828901611c25565b95989497509295608001359392505050565b6000815180845260005b81811015611e9457602081850181015186830182015201611e78565b81811115611ea6576000602083870101525b50601f01601f19169290920160200192915050565b634e487b7160e01b600052602160045260246000fd5b60058110611eef57634e487b7160e01b600052602160045260246000fd5b9052565b6000610160825184526020830151611f1660208601826001600160a01b03169052565b506040830151816040860152611f2e82860182611e6e565b91505060608301518482036060860152611f488282611e6e565b91505060808301518482036080860152611f628282611e6e565b91505060a083015160a085015260c083015160c085015260e083015160e085015261010080840151818601525061012080840151818601525061014080840151611fae82870182611ed1565b5090949350505050565b6000602080830181845280855180835260408601915060408160051b870101925083870160005b8281101561200d57603f19888603018452611ffb858351611ef3565b94509285019290850190600101611fdf565b5092979650505050505050565b60208152600061202d6020830184611ef3565b9392505050565b634e487b7160e01b600052601160045260246000fd5b6000821982111561205d5761205d612034565b500190565b600060001982141561207657612076612034565b5060010190565b602080825260119082015270141c9bda9958dd081b9bdd08199bdd5b99607a1b604082015260600190565b634e487b7160e01b600052603260045260246000fd5b6020808252600c908201526b155b985d5d1a1bdc9a5e995960a21b604082015260600190565b600181811c908216806120f857607f821691505b6020821081141561211957634e487b7160e01b600052602260045260246000fd5b50919050565b600081600019048311821515161561213957612139612034565b500290565b60008261215b57634e487b7160e01b600052601260045260246000fd5b500490565b60008282101561217257612172612034565b50039056feaee8e5d3bbb2f71a951b5632cee20f7ac487b9f8ab4f66a236f7694b13af7c6aa26469706673582212202f326171a9ecee8ad2a59959a3b51bf7e98837bef6b71cbbbc77a9dea7d57dcb64736f6c634300080b0033",
  "linkReferences": {},
  "deployedLinkReferences": {}
}